00COTAHIST.2026BOVESPA 20260120                                                                                                                                                                                                                      
012026012002BGIP4       010BANESE      PN           R$  000000000366900000000037000000000003602000000000364000000000037000000000003641000000000372300030000000000000005100000000000018567800000000000000009999123100000010000000000000BRBGIPACNPR8213
012026012002WDCN3       010WDC NETWORKSON      NM   R$  000000000027800000000002850000000000273000000000027800000000002750000000000273000000000027500053000000000000021800000000000006080400000000000000009999123100000010000000000000BRWDCNACNOR2100
012026012002WEGE3       010WEG         ON      NM   R$  000000000465400000000047280000000004600000000000466100000000046430000000004643000000000464415919000000000005987900000000027910851400000000000000009999123100000010000000000000BRWEGEACNOR0234
012026012002YDUQ3       010YDUQS PART  ON      NM   R$  000000000118400000000012080000000001163000000000119500000000012010000000001198000000000120311462000000000003069900000000003670972800000000000000009999123100000010000000000000BRYDUQACNOR3108
012026012002WEST3       010WESTWING    ON      NM   R$  000000000053800000000005380000000000538000000000053800000000005380000000000520000000000053700004000000000000001500000000000000807000000000000000009999123100000010000000000000BRWESTACNOR3101
012026012002WHRL3       010WHIRLPOOL   ON           R$  000000000043000000000004300000000000427000000000042700000000004280000000000428000000000043100003000000000000000900000000000000384800000000000000009999123100000010000000000000BRWHRLACNOR5135
012026012002WHRL4       010WHIRLPOOL   PN           R$  000000000045900000000004600000000000456000000000045700000000004570000000000457000000000045900017000000000000003200000000000001464000000000000000009999123100000010000000000000BRWHRLACNPR2135
012026012002WIZC3       010WIZ CO      ON      NM   R$  000000000094700000000009470000000000918000000000092700000000009330000000000931000000000093401651000000000000404000000000000374752700000000000000009999123100000010000000000000BRWIZCACNOR5104
012026012002WLMM4       010WLM IND COM PN  EJ       R$  000000000207900000000020790000000002020000000000204900000000020200000000001700000000000200000002000000000000000200000000000000409900000000000000009999123100000010000000000000BRWLMMACNPR3125
012026012002HBOR3       010HELBOR      ON      NM   R$  000000000024300000000002500000000000239000000000024400000000002440000000000244000000000024600581000000000000662500000000000162303500000000000000009999123100000010000000000000BRHBORACNOR3120
012026012002HBRE3       010HBR REALTY  ON      NM   R$  000000000035900000000003590000000000347000000000035100000000003470000000000346000000000034700391000000000000257300000000000090500100000000000000009999123100000010000000000000BRHBREACNOR4101
012026012002HBSA3       010HIDROVIAS   ON      NM   R$  000000000039400000000003960000000000384000000000039000000000003930000000000390000000000039303332000000000002301600000000000898324500000000000000009999123100000010000000000000BRHBSAACNOR0102
012026012002SYNE3       010SYN PROP TECON      NM   R$  000000000047600000000004790000000000469000000000047300000000004730000000000473000000000047501048000000000000482500000000000228395100000000000000009999123100000010000000000000BRSYNEACNOR2107
012026012002MGEL4       010MANGELS INDLPN           R$  000000000058000000000005890000000000575000000000057800000000005770000000000576000000000058700006000000000000001300000000000000751900000000000000009999123100000010000000000000BRMGELACNPR3147
012026012002MGLU3       010MAGAZ LUIZA ON      NM   R$  000000000082700000000008830000000000818000000000085400000000008400000000000840000000000084221349000000000022970000000000019635977800000000000000009999123100000010000000000000BRMGLUACNOR2130
012026012002PDGR3       010PDG REALT   ON      NM   R$  000000000012600000000001300000000000121000000000012500000000001250000000000123000000000012600055000000000000013600000000000001704900000000000000009999123100000010000000000000BRPDGRACNOR8123
012026012002PDTC3       010PADTEC      ON      NM   R$  000000000014000000000001400000000000133000000000013600000000001370000000000134000000000013700036000000000000010200000000000001393700000000000000009999123100000010000000000000BRPDTCACNOR3101
012026012002PETR3       010PETROBRAS   ON      N2   R$  000000000341900000000034700000000003396000000000344200000000034450000000003440000000000344609972000000000007453300000000025654290800000000000000009999123100000010000000000000BRPETRACNOR9212
012026012002PETR4       010PETROBRAS   PN      N2   R$  000000000321700000000032520000000003194000000000322800000000032290000000003227000000000322931575000000000026300000000000084899804200000000000000009999123100000010000000000000BRPETRACNPR6223
012026012002SANB11      010SANTANDER BRUNT          R$  000000000333300000000034000000000003297000000000337000000000034000000000003382000000000340008470000000000003606400000000012154624000000000000000009999123100000010000000000000BRSANBCDAM13171
012026012002SANB3       010SANTANDER BRON           R$  000000000162000000000016630000000001611000000000164700000000016630000000001656000000000166300323000000000000066900000000000110184800000000000000009999123100000010000000000000BRSANBACNOR8178
012026012002SANB4       010SANTANDER BRPN           R$  000000000171800000000017380000000001686000000000172000000000017380000000001723000000000173800392000000000000092300000000000158771200000000000000009999123100000010000000000000BRSANBACNPR5178
012026012002OBTC3       010ORANJEBTC   ON           R$  000000000090200000000009050000000000876000000000089000000000008770000000000877000000000090001225000000000000333200000000000296848700000000000000009999123100000010000000000000BROBTCACNOR0100
012026012002ODPV3       010ODONTOPREV  ON      NM   R$  000000000107600000000010930000000001062000000000107400000000010840000000001082000000000108905847000000000001840300000000001977954700000000000000009999123100000010000000000000BRODPVACNOR4213
012026012002OFSA3       010OUROFINO S/AON      NM   R$  000000000241000000000024490000000002302000000000236600000000023020000000002302000000000236000016000000000000001700000000000004023000000000000000009999123100000010000000000000BROFSAACNOR7122
012026012002ONCO3       010ONCOCLINICASON      NM   R$  000000000021900000000002280000000000212000000000022100000000002230000000000223000000000022502742000000000003161600000000000698908700000000000000009999123100000010000000000000BRONCOACNOR6102
012026012002BHIA3       010CASAS BAHIA ON      NM   R$  000000000028300000000002930000000000281000000000028700000000002850000000000285000000000028701829000000000002501400000000000719798600000000000000009999123100000010000000000000BRBHIAACNOR1104
012026012002BIED3       010BIOMA EDUC  ON      MA   R$  000000000050800000000005250000000000500000000000051100000000005250000000000523000000000052500015000000000000029300000000000015001200000000000000009999123100000010000000000000BRBIEDACNOR2101
012026012002VITT3       010VITTIA      ON  EJ  NM   R$  000000000044800000000004510000000000438000000000044200000000004380000000000438000000000044300618000000000000169400000000000074999300000000000000009999123100000010000000000000BRVITTACNOR4113
012026012002VIVA3       010VIVARA S.A. ON      NM   R$  000000000267100000000027430000000002634000000000271000000000027050000000002704000000000270715190000000000004822400000000013071745200000000000000009999123100000010000000000000BRVIVAACNOR0109
012026012002VSTE3       010VESTE       ON      NM   R$  000000000039000000000003910000000000388000000000038900000000003880000000000387000000000038900032000000000000033600000000000013093300000000000000009999123100000010000000000000BRVSTEACNOR5104
012026012002VTRU3       010VITRUEDUCA  ON      NM   R$  000000000148400000000015130000000001465000000000149800000000015080000000001508000000000151000874000000000000136700000000000204906900000000000000009999123100000010000000000000BRVTRUACNOR3101
012026012002VULC3       010VULCABRAS   ON      NM   R$  000000000178500000000018120000000001760000000000179400000000018060000000001803000000000180604093000000000001240100000000002225425300000000000000009999123100000010000000000000BRVULCACNOR2181
012026012002VVEO3       010VIVEO       ON      NM   R$  000000000013400000000001380000000000134000000000013600000000001350000000000135000000000013600664000000000000279900000000000038087400000000000000009999123100000010000000000000BRVVEOACNOR0104
012026012002BBSE3       010BBSEGURIDADEON      NM   R$  000000000352800000000035590000000003498000000000354300000000035590000000003555000000000355911909000000000004912000000000017404103400000000000000009999123100000010000000000000BRBBSEACNOR5127
012026012002CPLE3       010COPEL       ON      NM   R$  000000000122800000000012490000000001212000000000124000000000012460000000001243000000000124628247000000000018771400000000023282871800000000000000009999123100000010000000000000BRCPLEACNOR8153
012026012002CRPG5       010CRISTAL     PNA          R$  000000000186100000000018950000000001849000000000186900000000018740000000001874000000000187500018000000000000002100000000000003925000000000000000009999123100000010000000000000BRCRPGACNPA3119
012026012002CSAN3       010COSAN       ON      NM   R$  000000000050300000000005190000000000499000000000050800000000005040000000000504000000000050516231000000000032238100000000016401462800000000000000009999123100000010000000000000BRCSANACNOR6128
012026012002EALT4       010ACO ALTONA  PN           R$  000000000140400000000014100000000001370000000000139100000000013910000000001390000000000140000039000000000000005500000000000007651600000000000000009999123100000010000000000000BREALTACNPR1140
012026012002ECOR3       010ECORODOVIAS ON      NM   R$  000000000104000000000010400000000001013000000000103000000000010360000000001036000000000103710477000000000006958000000000007171297900000000000000009999123100000010000000000000BRECORACNOR8122
012026012002EGIE3       010ENGIE BRASILON      NM   R$  000000000307400000000031240000000003046000000000308700000000031240000000003112000000000312506749000000000002634900000000008136065300000000000000009999123100000010000000000000BREGIEACNOR9132
012026012002GGPS3       010GPS         ON      NM   R$  000000000163500000000016710000000001617000000000165000000000016710000000001660000000000167109396000000000002737200000000004516717200000000000000009999123100000010000000000000BRGGPSACNOR9106
012026012002GMAT3       010GRUPO MATEUSON      NM   R$  000000000045700000000004590000000000451000000000045500000000004560000000000456000000000045804398000000000006330100000000002886432000000000000000009999123100000010000000000000BRGMATACNOR7109
012026012002GOAU3       010GERDAU MET  ON      N1   R$  000000000093100000000009410000000000924000000000093500000000009380000000000937000000000094500149000000000000038000000000000035547500000000000000009999123100000010000000000000BRGOAUACNOR1274
012026012002GOAU4       010GERDAU MET  PN      N1   R$  000000000096200000000009710000000000948000000000095900000000009710000000000970000000000097107879000000000006026200000000005782714900000000000000009999123100000010000000000000BRGOAUACNPR8275
012026012002ADMF3       010CIABRASF    ON      NM   R$  000000000120000000000012000000000001200000000000120000000000012000000000000950000000000300000001000000000000000100000000000000120000000000000000009999123100000010000000000000BRADMFACNOR3101
012026012002AERI3       010AERIS       ON      NM   R$  000000000031300000000003200000000000313000000000031600000000003170000000000313000000000031700134000000000000036600000000000011599700000000000000009999123100000010000000000000BRAERIACNOR4102
012026012002AFLT3       010AFLUENTE T  ON           R$  000000000073900000000007390000000000738000000000073800000000007380000000000721000000000073800002000000000000000300000000000000221600000000000000009999123100000010000000000000BRAFLTACNOR1126
012026012002AGRO3       010BRASILAGRO  ON      NM   R$  000000000200500000000020700000000002002000000000205100000000020700000000002062000000000207001866000000000000301700000000000619021900000000000000009999123100000010000000000000BRAGROACNOR7116
012026012002ALLD3       010ALLIED      ON      NM   R$  000000000083700000000008410000000000831000000000083500000000008320000000000832000000000083700509000000000000293200000000000244845000000000000000009999123100000010000000000000BRALLDACNOR3109
012026012002CAMB3       010CAMBUCI     ON           R$  000000000091800000000009270000000000917000000000092300000000009250000000000925000000000093200037000000000000010100000000000009331200000000000000009999123100000010000000000000BRCAMBACNOR4136
012026012002CAML3       010CAMIL       ON      NM   R$  000000000060500000000006090000000000594000000000060400000000005990000000000599000000000060803874000000000001360800000000000822179900000000000000009999123100000010000000000000BRCAMLACNOR3134
012026012002ENEV3       010ENEVA       ON      NM   R$  000000000205900000000021030000000002059000000000209000000000020940000000002086000000000209528303000000000008938300000000018683208600000000000000009999123100000010000000000000BRENEVACNOR8107
012026012002ITUB3       010ITAUUNIBANCOON      N1   R$  000000000367800000000037000000000003619000000000366600000000036750000000003675000000000368404073000000000001955700000000007171176900000000000000009999123100000010000000000000BRITUBACNOR4364
012026012002ITUB4       010ITAUUNIBANCOPN      N1   R$  000000000393500000000040090000000003907000000000397500000000039920000000003988000000000399527520000000000020693900000000082263619000000000000000009999123100000010000000000000BRITUBACNPR1364
012026012002LUPA3       010LUPATECH    ON      NM   R$  000000000011900000000001250000000000118000000000012200000000001240000000000122000000000012500220000000000000282800000000000034570700000000000000009999123100000010000000000000BRLUPAACNOR8112
012026012002LUXM4       010TREVISA     PN           R$  000000000041900000000004210000000000418000000000041900000000004180000000000418000000000043500022000000000000015100000000000006338100000000000000009999123100000010000000000000BRLUXMACNPR4053
012026012002LWSA3       010LWSA        ON      NM   R$  000000000043000000000004310000000000422000000000042700000000004280000000000426000000000042804927000000000002706100000000001155954900000000000000009999123100000010000000000000BRLWSAACNOR8105
012026012002NEOE3       010NEOENERGIA  ON      NM   R$  000000000320400000000032110000000003203000000000320900000000032090000000003208000000000320900856000000000000803500000000002578640100000000000000009999123100000010000000000000BRNEOEACNOR3127
012026012002PFRM3       010PROFARMA    ON      NM   R$  000000000079800000000008110000000000788000000000080000000000008110000000000794000000000081200358000000000000073900000000000059187300000000000000009999123100000010000000000000BRPFRMACNOR1122
012026012002PGMN3       010PAGUE MENOS ON      NM   R$  000000000063000000000006350000000000616000000000062300000000006250000000000620000000000062505048000000000003044100000000001898932500000000000000009999123100000010000000000000BRPGMNACNOR8106
012026012002PINE3       010PINE        ON  EDJ N2   R$  000000000130900000000013090000000001285000000000129700000000013050000000001253000000000130500006000000000000001300000000000001686800000000000000009999123100000010000000000000BRPINEACNOR1160
012026012002PINE4       010PINE        PN  EDJ N2   R$  000000000135000000000013520000000001318000000000132800000000013200000000001320000000000132300646000000000000290400000000000385685700000000000000009999123100000010000000000000BRPINEACNPR8160
012026012002PLPL3       010PLANOEPLANO ON      NM   R$  000000000136900000000013870000000001331000000000136500000000013830000000001380000000000138306370000000000002172100000000002966777900000000000000009999123100000010000000000000BRPLPLACNOR5106
012026012002PNVL3       010DIMED       ON  EJ  NM   R$  000000000125500000000012580000000001236000000000124700000000012500000000001245000000000125102460000000000000389900000000000486265600000000000000009999123100000010000000000000BRPNVLACNOR9213
012026012002POMO3       010MARCOPOLO   ON      N2   R$  000000000055700000000005630000000000550000000000055700000000005550000000000554000000000056001178000000000000597000000000000332704700000000000000009999123100000010000000000000BRPOMOACNOR0105
012026012002POMO4       010MARCOPOLO   PN      N2   R$  000000000058800000000006020000000000583000000000059400000000005970000000000594000000000059808949000000000009594700000000005706490500000000000000009999123100000010000000000000BRPOMOACNPR7105
012026012002HAGA3       010HAGA S/A    ON           R$  000000000019500000000001950000000000195000000000019500000000001950000000000175000000000019400001000000000000000500000000000000097500000000000000009999123100000010000000000000BRHAGAACNOR7103
012026012002HAGA4       010HAGA S/A    PN           R$  000000000011200000000001160000000000112000000000011400000000001150000000000112000000000011500006000000000000002600000000000000298000000000000000009999123100000010000000000000BRHAGAACNPR4103
012026012002HAPV3       010HAPVIDA     ON      NM   R$  000000000133900000000013730000000001320000000000134200000000013230000000001322000000000132409482000000000004942900000000006635487800000000000000009999123100000010000000000000BRHAPVACNOR4119
012026012002MTSA4       010METISA      PN           R$  000000000464900000000048500000000004563000000000471600000000048500000000004815000000000487500032000000000000005200000000000024523200000000000000009999123100000010000000000000BRMTSAACNPR9079
012026012002ALOS3       010ALLOS       ON      NM   R$  000000000284400000000028690000000002820000000000284900000000028500000000002848000000000285006830000000000002288600000000006520564400000000000000009999123100000010000000000000BRALOSACNOR5117
012026012002BRAV3       010BRAVA       ON      NM   R$  000000000169000000000017820000000001690000000000174800000000017630000000001763000000000176420029000000000010406900000000018199491500000000000000009999123100000010000000000000BRBRAVACNOR3103
012026012002CPFE3       010CPFL ENERGIAON      NM   R$  000000000509300000000051830000000005046000000000514500000000051830000000005163000000000518306987000000000001314500000000006763849800000000000000009999123100000010000000000000BRCPFEACNOR0138
012026012002DASA3       010DASA        ON      NM   R$  000000000036500000000003760000000000360000000000036800000000003660000000000366000000000036802597000000000001048800000000000386180600000000000000009999123100000010000000000000BRDASAACNOR1123
012026012002DESK3       010DESKTOP     ON      NM   R$  000000000179600000000018250000000001775000000000180300000000018080000000001805000000000181005738000000000001525900000000002752201200000000000000009999123100000010000000000000BRDESKACNOR2106
012026012002DEXP3       010DEXXOS PAR  ON      N1   R$  000000000073900000000007400000000000714000000000072500000000007240000000000724000000000072500836000000000000225200000000000163274100000000000000009999123100000010000000000000BRDEXPACNOR1109
012026012002DEXP4       010DEXXOS PAR  PN      N1   R$  000000000073600000000007360000000000725000000000072600000000007250000000000724000000000072900014000000000000003400000000000002471000000000000000009999123100000010000000000000BRDEXPACNPR8109
012026012002DIRR3       010DIRECIONAL  ON      NM   R$  000000000131000000000013200000000001287000000000130400000000013050000000001302000000000130615870000000000007394200000000009648515500000000000000009999123100000010000000000000BRDIRRACNOR0123
012026012002DMVF3       010D1000VFARMA ON      NM   R$  000000000069900000000007100000000000685000000000070100000000007000000000000687000000000070000287000000000000037100000000000026042300000000000000009999123100000010000000000000BRDMVFACNOR9100
012026012002DOHL4       010DOHLER      PN           R$  000000000036900000000003730000000000369000000000037200000000003720000000000372000000000039800005000000000000001700000000000000632500000000000000009999123100000010000000000000BRDOHLACNPR9067
012026012002DOTZ3       010DOTZ SA     ON      NM   R$  000000000043600000000004360000000000417000000000042700000000004360000000000418000000000043600032000000000000007100000000000003032000000000000000009999123100000010000000000000BRDOTZACNOR7101
012026012002DXCO3       010DEXCO       ON      NM   R$  000000000052700000000005330000000000522000000000052900000000005320000000000532000000000053302131000000000000831000000000000439639000000000000000009999123100000010000000000000BRDXCOACNOR8108
012026012002GEPA3       010GER PARANAP ON           R$  000000000330000000000033000000000003300000000000330000000000033000000000003004000000000339800001000000000000000100000000000000330000000000000000009999123100000010000000000000BRGEPAACNOR2158
012026012002GEPA4       010GER PARANAP PN           R$  000000000346800000000035050000000003400000000000348900000000034000000000003418000000000347500010000000000000001700000000000005932100000000000000009999123100000010000000000000BRGEPAACNPR9165
012026012002GFSA3       010GAFISA      ON      NM   R$  000000000040200000000004040000000000391000000000039600000000003910000000000391000000000039200447000000000000298400000000000118181500000000000000009999123100000010000000000000BRGFSAACNOR3127
012026012002GGBR3       010GERDAU      ON      N1   R$  000000000185600000000018780000000001845000000000186600000000018670000000001867000000000188400132000000000000027600000000000051510500000000000000009999123100000010000000000000BRGGBRACNOR1198
012026012002GGBR4       010GERDAU      PN      N1   R$  000000000220200000000022200000000002174000000000220100000000022200000000002220000000000222116399000000000008888200000000019568269500000000000000009999123100000010000000000000BRGGBRACNPR8198
012026012002AALR3       010ALLIAR      ON      NM   R$  000000000043300000000004330000000000418000000000042300000000004330000000000425000000000043400064000000000000053400000000000022623500000000000000009999123100000010000000000000BRAALRACNOR6104
012026012002ABCB4       010ABC BRASIL  PN      N2   R$  000000000239900000000024110000000002366000000000239400000000024060000000002403000000000240602135000000000000344000000000000823835400000000000000009999123100000010000000000000BRABCBACNPR4150
012026012002ABEV3       010AMBEV S/A   ON           R$  000000000140800000000014210000000001400000000000141100000000014070000000001406000000000140922349000000000020664800000000029166009700000000000000009999123100000010000000000000BRABEVACNOR1134
012026012002MULT3       010MULTIPLAN   ON      N2   R$  000000000292400000000029600000000002887000000000294000000000029600000000002957000000000296212472000000000003341400000000009825307200000000000000009999123100000010000000000000BRMULTACNOR5145
012026012002MYPK3       010IOCHP-MAXIONON      NM   R$  000000000099400000000010080000000000990000000000099900000000010040000000001004000000000100601856000000000000705200000000000705166400000000000000009999123100000010000000000000BRMYPKACNOR7158
012026012002NATU3       010NATURA      ON      NM   R$  000000000073300000000007500000000000728000000000074200000000007470000000000747000000000074808893000000000007189500000000005336025100000000000000009999123100000010000000000000BRNATUACNOR6137
012026012002RCSL3       010RECRUSUL    ON           R$  000000000035700000000003720000000000343000000000036000000000003570000000000355000000000035700952000000000000635800000000000228963200000000000000009999123100000010000000000000BRRCSLACNOR4134
012026012002RCSL4       010RECRUSUL    PN           R$  000000000104600000000010980000000000950000000000104900000000010250000000001024000000000102509962000000000007035600000000007385731200000000000000009999123100000010000000000000BRRCSLACNPR1134
012026012002RDOR3       010REDE D OR   ON      NM   R$  000000000402000000000040700000000003977000000000401400000000040140000000004000000000000401513473000000000002681500000000010765666200000000000000009999123100000010000000000000BRRDORACNOR8119
012026012002RECV3       010PETRORECSA  ON  ED  NM   R$  000000000104800000000010620000000001034000000000105100000000010600000000001059000000000106005200000000000002466900000000002593210300000000000000009999123100000010000000000000BRRECVACNOR3110
012026012002SMFT3       010SMART FIT   ON      NM   R$  000000000208500000000021150000000002067000000000209700000000020920000000002091000000000209219926000000000006559200000000013755775200000000000000009999123100000010000000000000BRSMFTACNOR1118
012026012002ISAE3       010ISA ENERGIA ON      N1   R$  000000000341000000000034300000000003400000000000341900000000034300000000003403000000000343000010000000000000001600000000000005471500000000000000009999123100000010000000000000BRISAEACNOR2107
012026012002ISAE4       010ISA ENERGIA PN      N1   R$  000000000259000000000026070000000002563000000000259300000000026050000000002602000000000260503407000000000000904600000000002345792000000000000000009999123100000010000000000000BRISAEACNPR9107
012026012002ITSA3       010ITAUSA      ON      N1   R$  000000000121500000000012230000000001203000000000121600000000012220000000001215000000000122200344000000000000115900000000000140952000000000000000009999123100000010000000000000BRITSAACNOR0455
012026012002ITSA4       010ITAUSA      PN      N1   R$  000000000119600000000012130000000001187000000000120400000000012110000000001209000000000121116893000000000018781600000000022618243800000000000000009999123100000010000000000000BRITSAACNPR7455
012026012002LAND3       010TERRASANTAPAON      NM   R$  000000000084100000000008700000000000841000000000086000000000008550000000000841000000000085500121000000000000024800000000000021344400000000000000009999123100000010000000000000BRLANDACNOR9104
012026012002LAVV3       010LAVVI       ON      NM   R$  000000000159800000000016120000000001575000000000159800000000016040000000001604000000000161101402000000000000365500000000000584132400000000000000009999123100000010000000000000BRLAVVACNOR4119
012026012002TOKY3       010GRUPO TOKY  ON      NM   R$  000000000006400000000000650000000000057000000000006000000000000580000000000057000000000005800884000000000001038100000000000062303200000000000000009999123100000010000000000000BRTOKYACNOR5101
012026012002TOTS3       010TOTVS       ON      NM   R$  000000000433100000000044640000000004326000000000442900000000044640000000004443000000000446411071000000000003659200000000016208232600000000000000009999123100000010000000000000BRTOTSACNOR8150
012026012002LEVE3       010METAL LEVE  ON      NM   R$  000000000337800000000033860000000003340000000000335800000000033650000000003360000000000336501051000000000000182000000000000611287100000000000000009999123100000010000000000000BRLEVEACNOR2202
012026012002LJQQ3       010QUERO-QUERO ON      NM   R$  000000000022400000000002250000000000216000000000022000000000002220000000000221000000000022202784000000000003009500000000000663829400000000000000009999123100000010000000000000BRLJQQACNOR5105
012026012002LOGG3       010LOG COM PROPON      NM   R$  000000000260500000000026150000000002554000000000258000000000025730000000002573000000000258201837000000000000243900000000000629372100000000000000009999123100000010000000000000BRLOGGACNOR7112
012026012002LOGN3       010LOG-IN      ON      NM   R$  000000000320500000000032730000000003200000000000322000000000032300000000003225000000000323000050000000000000028900000000000093078100000000000000009999123100000010000000000000BRLOGNACNOR3105
012026012002LPSB3       010LOPES BRASILON      NM   R$  000000000015400000000001570000000000151000000000015300000000001550000000000155000000000015700232000000000000143100000000000022028100000000000000009999123100000010000000000000BRLPSBACNOR0116
012026012002LREN3       010LOJAS RENNERON      NM   R$  000000000133500000000013850000000001327000000000136500000000013620000000001360000000000136418377000000000011766900000000016070957800000000000000009999123100000010000000000000BRLRENACNOR1228
012026012002MTRE3       010MITRE REALTYON      NM   R$  000000000036800000000003720000000000364000000000036900000000003690000000000369000000000037100695000000000000436700000000000161178700000000000000009999123100000010000000000000BRMTREACNOR6130
012026012002RAIZ4       010RAIZEN      PN      N2   R$  000000000008000000000000810000000000079000000000008000000000000790000000000079000000000008009801000000000016938800000000001359921000000000000000009999123100000010000000000000BRRAIZACNPR6112
012026012002RANI3       010IRANI       ON      NM   R$  000000000088200000000008900000000000873000000000088400000000008860000000000886000000000089000984000000000000319200000000000282295700000000000000009999123100000010000000000000BRRANIACNOR5079
012026012002RAPT3       010RANDON PART ON      N1   R$  000000000065000000000006580000000000650000000000065300000000006530000000000653000000000065900024000000000000019000000000000012421200000000000000009999123100000010000000000000BRRAPTACNOR7166
012026012002RAPT4       010RANDON PART PN      N1   R$  000000000065000000000006640000000000649000000000065800000000006620000000000662000000000066304564000000000002489500000000001638743700000000000000009999123100000010000000000000BRRAPTACNPR4166
012026012002UNIP3       010UNIPAR      ON           R$  000000000566000000000058000000000005555000000000569200000000057240000000005706000000000575100120000000000000020100000000000114414700000000000000009999123100000010000000000000BRUNIPACNOR7210
012026012002UNIP5       010UNIPAR      PNA          R$  000000000648000000000064800000000006480000000000648000000000064800000000005861000000000649300001000000000000000100000000000000648000000000000000009999123100000010000000000000BRUNIPACNPA0212
012026012002UNIP6       010UNIPAR      PNB          R$  000000000601400000000060140000000005668000000000577400000000057170000000005716000000000571703965000000000000682100000000003938849300000000000000009999123100000010000000000000BRUNIPACNPB8210
012026012002CMIG4       010CEMIG       PN      N1   R$  000000000108400000000010860000000001070000000000107800000000010860000000001084000000000108615840000000000011535700000000012442060600000000000000009999123100000010000000000000BRCMIGACNPR3252
012026012002CXSE3       010CAIXA SEGURION      NM   R$  000000000162100000000016390000000001612000000000162900000000016390000000001632000000000164006828000000000002438800000000003973737000000000000000009999123100000010000000000000BRCXSEACNOR7114
012026012002ESPA3       010ESPACOLASER ON      NM   R$  000000000008600000000000870000000000082000000000008300000000000820000000000082000000000008300504000000000000680200000000000056674900000000000000009999123100000010000000000000BRESPAACNOR7105
012026012002ETER3       010ETERNIT     ON      NM   R$  000000000039800000000003990000000000392000000000039500000000003930000000000393000000000039400265000000000000099300000000000039311600000000000000009999123100000010000000000000BRETERACNOR3246
012026012002EUCA3       010EUCATEX     ON      N1   R$  000000000201000000000020100000000002010000000000201000000000020100000000002005000000000208000001000000000000000100000000000000201000000000000000009999123100000010000000000000BREUCAACNOR1159
012026012002EUCA4       010EUCATEX     PN      N1   R$  000000000191700000000019170000000001839000000000187400000000019100000000001867000000000191500190000000000000026500000000000049679200000000000000009999123100000010000000000000BREUCAACNPR8046
012026012002EVEN3       010EVEN        ON      NM   R$  000000000071000000000007100000000000700000000000070300000000007040000000000703000000000070902120000000000000638000000000000448940300000000000000009999123100000010000000000000BREVENACNOR8121
012026012002EZTC3       010EZTEC       ON      NM   R$  000000000136900000000014060000000001357000000000138100000000013850000000001385000000000138606197000000000002226200000000003074943200000000000000009999123100000010000000000000BREZTCACNOR0132
012026012002AZEV3       010AZEVEDO     ON           R$  000000000003500000000000350000000000032000000000003300000000000340000000000033000000000003400272000000000000870900000000000029294800000000000000009999123100000010000000000000BRAZEVACNOR0123
012026012002AZEV4       010AZEVEDO     PN           R$  000000000002100000000000210000000000020000000000002000000000000210000000000020000000000002100520000000000002732500000000000055759500000000000000009999123100000010000000000000BRAZEVACNPR7123
012026012002AZTE3       010AZT ENERGIA ON           R$  000000000003800000000000380000000000036000000000003700000000000380000000000037000000000003800899000000000002112500000000000078319500000000000000009999123100000010000000000000BRAZTEACNOR4101
012026012002BRKM3       010BRASKEM     ON      N1   R$  000000000083600000000008360000000000815000000000082800000000008200000000000820000000000083600036000000000000010200000000000008452800000000000000009999123100000010000000000000BRBRKMACNOR1119
012026012002BRKM5       010BRASKEM     PNA     N1   R$  000000000082000000000008330000000000809000000000082300000000008200000000000817000000000082005618000000000002682200000000002208594900000000000000009999123100000010000000000000BRBRKMACNPA4122
012026012002CSMG3       010COPASA      ON      NM   R$  000000000449800000000045730000000004470000000000453300000000045510000000004551000000000456711637000000000003821900000000017326568400000000000000009999123100000010000000000000BRCSMGACNOR5183
012026012002CSNA3       010SID NACIONALON           R$  000000000091100000000009160000000000889000000000089900000000008930000000000893000000000089513648000000000011011600000000009910171800000000000000009999123100000010000000000000BRCSNAACNOR6263
012026012002AMOB3       010AUTOMOB     ON      NM   R$  000000000129000000000013200000000001280000000000129500000000013200000000001301000000000132000126000000000000055800000000000072275800000000000000009999123100000010000000000000BRAMOBACNOR9101
012026012002ANIM3       010ANIMA       ON      NM   R$  000000000037200000000003910000000000368000000000038000000000003800000000000379000000000038005037000000000005072200000000001930370000000000000000009999123100000010000000000000BRANIMACNOR6110
012026012002CSED3       010CRUZEIRO EDUON      NM   R$  000000000061000000000006140000000000600000000000060700000000006100000000000610000000000061100711000000000000230000000000000139770800000000000000009999123100000010000000000000BRCSEDACNOR9107
012026012002EKTR4       010ELEKTRO     PN           R$  000000000380100000000038010000000003650000000000371000000000036510000000003651000000000378900011000000000000002100000000000007791300000000000000009999123100000010000000000000BREKTRACNPR7174
012026012002EMAE4       010EMAE        PN           R$  000000000427900000000045000000000004279000000000438500000000045000000000004392000000000450000030000000000000007700000000000033765400000000000000009999123100000010000000000000BREMAEACNPR1128
012026012002IGTI11      010IGUATEMI S.AUNT     N1   R$  000000000267400000000026780000000002639000000000266300000000026650000000002665000000000267011532000000000002735400000000007286784100000000000000009999123100000010000000000000BRIGTICDAM16108
012026012002IGTI3       010IGUATEMI S.AON      N1   R$  000000000032900000000003300000000000321000000000032600000000003260000000000321000000000032800063000000000000030300000000000009899900000000000000009999123100000010000000000000BRIGTIACNOR8108
012026012002IGTI4       010IGUATEMI S.APN      N1   R$  000000000116900000000011800000000001169000000000117100000000011800000000001174000000000117500003000000000000000400000000000000468700000000000000009999123100000010000000000000BRIGTIACNPR5108
012026012002INEP3       010INEPAR      ON           R$  000000000014400000000001440000000000136000000000014000000000001400000000000136000000000014000024000000000000009000000000000001260800000000000000009999123100000010000000000000BRINEPACNOR1145
012026012002INEP4       010INEPAR      PN           R$  000000000011800000000001190000000000114000000000011700000000001160000000000114000000000011600013000000000000002200000000000000258100000000000000009999123100000010000000000000BRINEPACNPR8145
012026012002INTB3       010INTELBRAS   ON      NM   R$  000000000107200000000010870000000001061000000000107400000000010730000000001070000000000107304040000000000001428000000000001534511900000000000000009999123100000010000000000000BRINTBACNOR9115
012026012002GUAR3       010GUARARAPES  ON      NM   R$  000000000081000000000008180000000000781000000000080200000000008150000000000814000000000081506311000000000002966000000000002381458700000000000000009999123100000010000000000000BRGUARACNOR4175
012026012002ALPA3       010ALPARGATAS  ON      N1   R$  000000000102800000000010500000000001028000000000103800000000010300000000001028000000000103000011000000000000002200000000000002284500000000000000009999123100000010000000000000BRALPAACNOR0234
012026012002ALPA4       010ALPARGATAS  PN      N1   R$  000000000129400000000012940000000001261000000000126900000000012610000000001260000000000126102746000000000000956700000000001214082800000000000000009999123100000010000000000000BRALPAACNPR7235
012026012002ALPK3       010ESTAPAR     ON      NM   R$  000000000045100000000004580000000000445000000000045100000000004470000000000447000000000045400238000000000000111000000000000050063900000000000000009999123100000010000000000000BRALPKACNOR9101
012026012002ALUP11      010ALUPAR      UNT     N2   R$  000000000326900000000033340000000003252000000000330900000000033340000000003328000000000333402846000000000000540200000000001787643100000000000000009999123100000010000000000000BRALUPCDAM15126
012026012002ALUP3       010ALUPAR      ON      N2   R$  000000000116600000000011790000000001162000000000116600000000011700000000001162000000000117900010000000000000001100000000000001283300000000000000009999123100000010000000000000BRALUPACNOR8126
012026012002ALUP4       010ALUPAR      PN      N2   R$  000000000106500000000010750000000001049000000000106400000000010710000000001055000000000107300036000000000000004100000000000004364300000000000000009999123100000010000000000000BRALUPACNPR5126
012026012002ATED3       010ATOM EDUC   ON           R$  000000000020700000000002070000000000204000000000020500000000002040000000000204000000000020700009000000000000003800000000000000780200000000000000009999123100000010000000000000BRATEDACNOR1100
012026012002AUAU3       010PETZCOBASI  ON      NM   R$  000000000032000000000003210000000000307000000000031600000000003150000000000315000000000031805851000000000003292300000000001042825800000000000000009999123100000010000000000000BRAUAUACNOR1100
012026012002AURE3       010AUREN       ON      NM   R$  000000000115000000000011550000000001138000000000114400000000011430000000001143000000000114605846000000000002721700000000003113705900000000000000009999123100000010000000000000BRAUREACNOR9105
012026012002AVLL3       010ALPHAVILLE  ON      NM   R$  000000000008600000000000860000000000082000000000008400000000000820000000000082000000000008500015000000000000031600000000000002661300000000000000009999123100000010000000000000BRAVLLACNOR5103
012026012002AXIA3       010AXIA ENERGIAON      N1   R$  000000000505200000000051510000000005033000000000510700000000051300000000005109000000000513129104000000000011896600000000060767634900000000000000009999123100000010000000000000BRAXIAACNOR0102
012026012002AXIA6       010AXIA ENERGIAPNB     N1   R$  000000000538300000000054860000000005361000000000545600000000054670000000005453000000000547102618000000000001525900000000008326826400000000000000009999123100000010000000000000BRAXIAACNPB1103
012026012002AXIA7       010AXIA ENERGIAPNC     N1   R$  000000000486000000000049620000000004855000000000493300000000049320000000004910000000000493406754000000000003037500000000014984979700000000000000009999123100000010000000000000BRAXIAACNPC9100
012026012002REDE3       010REDE ENERGIAON           R$  000000000062300000000006230000000000616000000000062000000000006160000000000616000000000062300004000000000000000400000000000000248000000000000000009999123100000010000000000000BRREDEACNOR7134
012026012002EMBJ3       010EMBRAER     ON      NM   R$  000000000990500000000099680000000009821000000000987900000000098610000000009860000000000986211884000000000002677200000000026448985800000000000000009999123100000010000000000000BREMBJACNOR1102
012026012002GOLL54      010GOL         PN *P   N2   R$  000000000100500000000010240000000001005000000000101200000000010130000000001013000000000101800397000000000148323000000000000150222927000000000000009999123100010000000000000000BRGOLLA01PR5100
012026012002GPAR3       010CELGPAR     ON           R$  000000000280000000000028000000000002800000000000280000000000028000000000001600000000000280000001000000000000000100000000000000280000000000000000009999123100000010000000000000BRGPARACNOR4110
012026012002GRND3       010GRENDENE    ON      NM   R$  000000000045400000000004550000000000448000000000045100000000004550000000000453000000000045509833000000000003453700000000001560382400000000000000009999123100000010000000000000BRGRNDACNOR3182
012026012002RENT3       010LOCALIZA    ON      NM   R$  000000000402500000000041140000000004021000000000407800000000040730000000004069000000000407318500000000000009126600000000037223040700000000000000009999123100000010000000000000BRRENTACNOR4205
012026012002RENT4       010LOCALIZA    PN      NM   R$  000000000392900000000040140000000003929000000000398400000000039750000000003957000000000398201546000000000000413900000000001649188500000000000000009999123100000010000000000000BRRENTACNPR1100
012026012002SMTO3       010SAO MARTINHOON      NM   R$  000000000161500000000016810000000001607000000000165300000000016500000000001650000000000166106346000000000002260100000000003736117300000000000000009999123100000010000000000000BRSMTOACNOR3129
012026012002SOJA3       010BOA SAFRA   ON      NM   R$  000000000084500000000008540000000000837000000000084400000000008450000000000840000000000084501337000000000000553200000000000467013600000000000000009999123100000010000000000000BRSOJAACNOR9109
012026012002UCAS3       010UNICASA     ON      NM   R$  000000000013500000000001370000000000134000000000013500000000001370000000000135000000000013700071000000000000009900000000000001341100000000000000009999123100000010000000000000BRUCASACNOR1114
012026012002UGPA3       010ULTRAPAR    ON      NM   R$  000000000221800000000022640000000002179000000000224600000000022570000000002248000000000225715482000000000005401900000000012133087200000000000000009999123100000010000000000000BRUGPAACNOR8159
012026012002VAMO3       010VAMOS       ON      NM   R$  000000000034900000000003570000000000345000000000035000000000003470000000000346000000000034707355000000000014484100000000005075173200000000000000009999123100000010000000000000BRVAMOACNOR7109
012026012002IFCM3       010INFRACOMM   ON  ES  NM   R$  000000000008000000000001050000000000080000000000009000000000000830000000000083000000000008401057000000000001776300000000000160732200000000000000009999123100000010000000000000BRIFCMACNOR8109
012026012002QUAL3       010QUALICORP   ON      NM   R$  000000000022900000000002290000000000214000000000021900000000002180000000000217000000000021802624000000000006650800000000001456904100000000000000009999123100000010000000000000BRQUALACNOR6122
012026012002RADL3       010RAIADROGASILON      NM   R$  000000000244000000000025000000000002425000000000247600000000024960000000002495000000000249718484000000000007446000000000018440041800000000000000009999123100000010000000000000BRRADLACNOR0165
012026012002TASA4       010TAURUS ARMASPN      N2   R$  000000000055500000000005640000000000544000000000055300000000005470000000000546000000000054801238000000000000465200000000000257293300000000000000009999123100000010000000000000BRTASAACNPR4106
012026012002TCSA3       010TECNISA     ON      NM   R$  000000000012200000000001240000000000122000000000012200000000001220000000000122000000000012400070000000000000018700000000000002296600000000000000009999123100000010000000000000BRTCSAACNOR3112
012026012002TECN3       010TECHNOS     ON      NM   R$  000000000073800000000007870000000000728000000000074300000000007330000000000730000000000073300229000000000000071000000000000052771600000000000000009999123100000010000000000000BRTECNACNOR6111
012026012002TELB3       010TELEBRAS    ON           R$  000000000111000000000011100000000001075000000000109000000000010750000000001077000000000111500003000000000000000300000000000000327000000000000000009999123100000010000000000000BRTELBACNOR2142
012026012002TELB4       010TELEBRAS    PN           R$  000000000077500000000007850000000000770000000000077600000000007850000000000766000000000078500003000000000000000400000000000000310500000000000000009999123100000010000000000000BRTELBACNPR9142
012026012002TEND3       010TENDA       ON      NM   R$  000000000227100000000023690000000002252000000000233000000000023690000000002368000000000236908354000000000001522400000000003548216900000000000000009999123100000010000000000000BRTENDACNOR4114
012026012002TFCO4       010TRACK FIELD PN      N2   R$  000000000146100000000014940000000001435000000000146200000000014700000000001470000000000147504244000000000000846600000000001237963000000000000000009999123100000010000000000000BRTFCOACNPR8121
012026012002TGMA3       010TEGMA       ON      NM   R$  000000000349800000000035480000000003454000000000351300000000035450000000003534000000000355401129000000000000196900000000000691834900000000000000009999123100000010000000000000BRTGMAACNOR7150
012026012002TIMS3       010TIM         ON      NM   R$  000000000230400000000024290000000002296000000000239700000000024250000000002419000000000242518097000000000010690900000000025630772900000000000000009999123100000010000000000000BRTIMSACNOR5129
012026012002MDIA3       010M.DIASBRANCOON      NM   R$  000000000244300000000024490000000002416000000000243500000000024390000000002431000000000243901532000000000000264000000000000643016400000000000000009999123100000010000000000000BRMDIAACNOR7149
012026012002MDNE3       010MOURA DUBEUXON      NM   R$  000000000240400000000024380000000002365000000000241400000000024150000000002413000000000241603750000000000000646900000000001562009600000000000000009999123100000010000000000000BRMDNEACNOR9104
012026012002MEAL3       010IMC S/A     ON      NM   R$  000000000012400000000001240000000000122000000000012200000000001240000000000122000000000012400037000000000000024400000000000002991100000000000000009999123100000010000000000000BRMEALACNOR9105
012026012002MELK3       010MELNICK     ON      NM   R$  000000000035800000000003630000000000358000000000036000000000003620000000000360000000000036200603000000000000459600000000000165770000000000000000009999123100000010000000000000BRMELKACNOR8116
012026012002JALL3       010JALLESMACHADON      NM   R$  000000000028600000000002890000000000283000000000028500000000002830000000000283000000000028400521000000000000522700000000000149176000000000000000009999123100000010000000000000BRJALLACNOR0106
012026012002PRNR3       010PRINER      ON      NM   R$  000000000159900000000016030000000001576000000000159100000000016030000000001588000000000160401088000000000000183100000000000291317900000000000000009999123100000010000000000000BRPRNRACNOR4111
012026012002PSSA3       010PORTO SEGUROON      NM   R$  000000000462600000000046480000000004572000000000461500000000046150000000004615000000000462607213000000000001514100000000006988328700000000000000009999123100000010000000000000BRPSSAACNOR7161
012026012002SAPR11      010SANEPAR     UNT     N2   R$  000000000435900000000043590000000004280000000000431400000000043220000000004322000000000433105637000000000001021000000000004405047000000000000000009999123100000010000000000000BRSAPRCDAM13121
012026012002SAPR3       010SANEPAR     ON      N2   R$  000000000098200000000009930000000000972000000000098300000000009760000000000975000000000097600454000000000000115000000000000113064100000000000000009999123100000010000000000000BRSAPRACNOR9162
012026012002SAPR4       010SANEPAR     PN      N2   R$  000000000083800000000008380000000000825000000000083000000000008310000000000831000000000083201832000000000000817700000000000679340100000000000000009999123100000010000000000000BRSAPRACNPR6162
012026012002SBFG3       010GRUPO SBF   ON      NM   R$  000000000127600000000013420000000001276000000000132000000000013300000000001330000000000133304206000000000001400600000000001849278200000000000000009999123100000010000000000000BRSBFGACNOR1104
012026012002SBSP3       010SABESP      ON      NM   R$  000000001239900000000128490000000012337000000001270400000000127840000000012784000000001284719666000000000004113800000000052262167000000000000000009999123100000010000000000000BRSBSPACNOR5165
012026012002TASA3       010TAURUS ARMASON      N2   R$  000000000055800000000005660000000000551000000000055900000000005620000000000555000000000056300089000000000000015800000000000008833100000000000000009999123100000010000000000000BRTASAACNOR7106
012026012002ARML3       010ARMAC       ON  EDJ NM   R$  000000000040500000000004270000000000398000000000041800000000004230000000000420000000000042301408000000000000589500000000000246499600000000000000009999123100000010000000000000BRARMLACNOR1117
012026012002ARND3       010ARANDU      ON      NM   R$  000000000008700000000000870000000000087000000000008700000000000870000000000087000000000008800005000000000000003800000000000000330600000000000000009999123100000010000000000000BRARNDACNOR6100
012026012002ASAI3       010ASSAI       ON      NM   R$  000000000073000000000007500000000000721000000000073900000000007480000000000748000000000074916962000000000011863200000000008775727500000000000000009999123100000010000000000000BRASAIACNOR0109
012026012002JHSF3       010JHSF PART   ON      NM   R$  000000000085600000000008770000000000848000000000086800000000008770000000000877000000000087805501000000000005281300000000004585258300000000000000009999123100000010000000000000BRJHSFACNOR2154
012026012002PTBL3       010PORTOBELLO  ON      NM   R$  000000000032400000000003240000000000317000000000031900000000003180000000000318000000000032000283000000000000153400000000000049030600000000000000009999123100000010000000000000BRPTBLACNOR8132
012026012002PTNT3       010PETTENATI   ON           R$  000000000083200000000008390000000000812000000000082300000000008290000000000814000000000082900018000000000000013300000000000010948600000000000000009999123100000010000000000000BRPTNTACNOR6044
012026012002PTNT4       010PETTENATI   PN           R$  000000000078500000000008100000000000785000000000080200000000008100000000000797000000000081500063000000000000159100000000000127651200000000000000009999123100000010000000000000BRPTNTACNPR3049
012026012002OPCT3       010OCEANPACT   ON      NM   R$  000000000088100000000008930000000000874000000000088100000000008840000000000882000000000088401414000000000000358500000000000316183500000000000000009999123100000010000000000000BROPCTACNOR0100
012026012002ORVR3       010ORIZON      ON      NM   R$  000000000686000000000069200000000006795000000000689000000000068770000000006873000000000689002212000000000000290700000000002002981900000000000000009999123100000010000000000000BRORVRACNOR0101
012026012002FRAS3       010FRAS-LE     ON      N1   R$  000000000237700000000023840000000002357000000000237100000000023730000000002370000000000237700745000000000000183800000000000435921800000000000000009999123100000010000000000000BRFRASACNOR0163
012026012002FRIO3       010METALFRIO   ON      NM   R$  000000001839200000000183920000000018392000000001839200000000183920000000016801000000002100000001000000000000000100000000000001839200000000000000009999123100000010000000000000BRFRIOACNOR2111
012026012002AZZA3       010AZZAS 2154  ON      NM   R$  000000000237100000000024390000000002335000000000239700000000023950000000002394000000000240008663000000000002124000000000005091483900000000000000009999123100000010000000000000BRAZZAACNOR9104
012026012002CEEB3       010COELBA      ON           R$  000000000437500000000046120000000004375000000000452300000000043760000000004380000000000469700006000000000000000600000000000002714200000000000000009999123100000010000000000000BRCEEBACNOR3207
012026012002CEED3       010CEEE-D      ON           R$  000000000089600000000008960000000000895000000000089500000000008950000000000702000000000099900002000000000000000200000000000000179100000000000000009999123100000010000000000000BRCEEDACNOR9103
012026012002B3SA3       010B3          ON      NM   R$  000000000150600000000015220000000001444000000000147800000000014670000000001466000000000146856994000000000126606100000000187218640500000000000000009999123100000010000000000000BRB3SAACNOR6140
012026012002BPAN4       010BANCO PAN   PN      N1   R$  000000000117100000000011960000000001167000000000118600000000011890000000001186000000000119403313000000000001228000000000001457099000000000000000009999123100000010000000000000BRBPANACNPR1116
012026012002BRAP3       010BRADESPAR   ON      N1   R$  000000000193300000000019690000000001907000000000194600000000019640000000001962000000000196400528000000000000110200000000000214553800000000000000009999123100000010000000000000BRBRAPACNOR5153
012026012002BRAP4       010BRADESPAR   PN      N1   R$  000000000219500000000022500000000002172000000000222300000000022400000000002239000000000224205376000000000002075300000000004613392800000000000000009999123100000010000000000000BRBRAPACNPR2153
012026012002CMIN3       010CSNMINERACAOON      N2   R$  000000000055100000000005520000000000543000000000054700000000005460000000000545000000000054605786000000000003822400000000002092466700000000000000009999123100000010000000000000BRCMINACNOR2116
012026012002COCE5       010COELCE      PNA          R$  000000000325000000000032950000000003206000000000324400000000032400000000003240000000000324100045000000000000016800000000000054505100000000000000009999123100000010000000000000BRCOCEACNPA3150
012026012002COGN3       010COGNA ON    ON      NM   R$  000000000035600000000003680000000000354000000000036300000000003650000000000364000000000036511321000000000019243900000000006993262200000000000000009999123100000010000000000000BRCOGNACNOR2110
012026012002CYRE3       010CYRELA REALTON      NM   R$  000000000243900000000025390000000002438000000000251400000000025360000000002522000000000253617725000000000005548700000000013953435800000000000000009999123100000010000000000000BRCYREACNOR7143
012026012002CYRE4       010CYRELA REALTPN      NM   R$  000000000232000000000024160000000002320000000000239200000000024060000000002406000000000241501273000000000000248900000000000595405800000000000000009999123100000010000000000000BRCYREACNPR4114
012026012002FESA3       010FERBASA     ON      N1   R$  000000000117000000000011700000000001168000000000116900000000011680000000001116000000000118000002000000000000000200000000000000233800000000000000009999123100000010000000000000BRFESAACNOR8194
012026012002FESA4       010FERBASA     PN      N1   R$  000000000068100000000006860000000000676000000000068100000000006820000000000682000000000068501639000000000000613200000000000417828400000000000000009999123100000010000000000000BRFESAACNPR5090
012026012002FHER3       010FER HERINGERON      NM   R$  000000000042100000000004300000000000421000000000042400000000004220000000000422000000000043000009000000000000004200000000000001784800000000000000009999123100000010000000000000BRFHERACNOR5103
012026012002FICT3       010FICTORALIMENON           R$  000000000016300000000001640000000000155000000000015800000000001590000000000155000000000015900045000000000000053700000000000008535900000000000000009999123100000010000000000000BRFICTACNOR3101
012026012002FIEI3       010FICA        ON           R$  000000000149900000000014990000000001499000000000149900000000014990000000001050000000000149900004000000000000002500000000000003747500000000000000009999123100000010000000000000BRFIEIACNOR2100
012026012002FIQE3       010UNIFIQUE    ON      NM   R$  000000000049500000000004970000000000488000000000049300000000004940000000000492000000000049400631000000000000270300000000000133384800000000000000009999123100000010000000000000BRFIQEACNOR5112
012026012002FLRY3       010FLEURY      ON      NM   R$  000000000155500000000015640000000001543000000000155400000000015640000000001562000000000156508327000000000001982000000000003080408700000000000000009999123100000010000000000000BRFLRYACNOR5143
012026012002CASH3       010MELIUZ      ON      NM   R$  000000000039500000000003970000000000389000000000039200000000003910000000000391000000000039201559000000000001519700000000000596520200000000000000009999123100000010000000000000BRCASHACNOR8107
012026012002CBAV3       010CBA         ON      NM   R$  000000000084200000000008780000000000836000000000086200000000008780000000000877000000000087806055000000000005061500000000004366293800000000000000009999123100000010000000000000BRCBAVACNOR5104
012026012002CEAB3       010CEA MODAS   ON      NM   R$  000000000096500000000010280000000000953000000000100400000000010090000000001007000000000100916413000000000012852300000000012904567200000000000000009999123100000010000000000000BRCEABACNOR1105
012026012002CEBR3       010CEB         ON           R$  000000000287700000000029370000000002877000000000291200000000029370000000002908000000000293700044000000000000009700000000000028254900000000000000009999123100000010000000000000BRCEBRACNOR5129
012026012002CEBR5       010CEB         PNA          R$  000000000268000000000027490000000002665000000000271900000000027490000000002688000000000274900017000000000000003300000000000008975400000000000000009999123100000010000000000000BRCEBRACNPA8128
012026012002CEBR6       010CEB         PNB          R$  000000000293400000000029990000000002904000000000294400000000029740000000002902000000000297500035000000000000004800000000000014133700000000000000009999123100000010000000000000BRCEBRACNPB6128
012026012002CEDO4       010CEDRO       PN      N1   R$  000000000094100000000009410000000000941000000000094100000000009410000000000918000000000094000003000000000000001100000000000001035100000000000000009999123100000010000000000000BRCEDOACNPR5128
012026012002CSUD3       010CSU DIGITAL ON      NM   R$  000000000175000000000017630000000001722000000000174400000000017450000000001740000000000174600291000000000000042300000000000073785800000000000000009999123100000010000000000000BRCSUDACNOR5117
012026012002CTKA4       010KARSTEN     PN           R$  000000000414400000000041690000000004144000000000414700000000041690000000004013000000000416900005000000000000000900000000000003733000000000000000009999123100000010000000000000BRCTKAACNPR7043
012026012002CURY3       010CURY S/A    ON      NM   R$  000000000325800000000032770000000003217000000000324600000000032390000000003239000000000324908702000000000002167600000000007036835600000000000000009999123100000010000000000000BRCURYACNOR3115
012026012002CVCB3       010CVC BRASIL  ON      NM   R$  000000000025200000000002640000000000239000000000025300000000002390000000000238000000000023910680000000000038347700000000009713863200000000000000009999123100000010000000000000BRCVCBACNOR1118
012026012002ENGI11      010ENERGISA    UNT     N2   R$  000000000465000000000047400000000004613000000000468800000000047400000000004730000000000474008320000000000001494200000000007006023500000000000000009999123100000010000000000000BRENGICDAM16140
012026012002ENGI3       010ENERGISA    ON      N2   R$  000000000121800000000012400000000001205000000000121500000000012160000000001216000000000123300083000000000000009500000000000011547700000000000000009999123100000010000000000000BRENGIACNOR0150
012026012002ENGI4       010ENERGISA    PN      N2   R$  000000000086400000000008700000000000855000000000085900000000008630000000000862000000000087000144000000000000040400000000000034708800000000000000009999123100000010000000000000BRENGIACNPR7146
012026012002ENJU3       010ENJOEI      ON      NM   R$  000000000010300000000001030000000000101000000000010100000000001030000000000101000000000010300301000000000000131100000000000013338100000000000000009999123100000010000000000000BRENJUACNOR9100
012026012002ENMT3       010ENERGISA MT ON           R$  000000000518800000000051880000000005060000000000512400000000050600000000000000000000000515700002000000000000000200000000000001024800000000000000009999123100000010000000000000BRENMTACNOR5125
012026012002EPAR3       010EMBPAR S/A  ON           R$  000000000039500000000003990000000000392000000000039400000000003920000000000392000000000039600021000000000000005400000000000002128900000000000000009999123100000010000000000000BREPARACNOR9107
012026012002AMAR3       010LOJAS MARISAON      NM   R$  000000000010100000000001030000000000098000000000009900000000000990000000000098000000000009900403000000000000370100000000000036953000000000000000009999123100000010000000000000BRAMARACNOR4115
012026012002BALM4       010BAUMER      PN           R$  000000000179100000000018390000000001772000000000179200000000017720000000001771000000000180000010000000000000001300000000000002329800000000000000009999123100000010000000000000BRBALMACNPR2060
012026012002BAZA3       010AMAZONIA    ON           R$  000000000761400000000076400000000007580000000000762300000000076160000000007589000000000762000045000000000000011800000000000089954900000000000000009999123100000010000000000000BRBAZAACNOR0180
012026012002BBAS3       010BRASIL      ON      NM   R$  000000000212800000000021600000000002112000000000214400000000021540000000002150000000000215434819000000000020625300000000044223032900000000000000009999123100000010000000000000BRBBASACNOR3334
012026012002EQMA3B      010EQTLMARANHAOON      MB   R$  000000000305000000000030500000000003050000000000305000000000030500000000003001000000000305000001000000000000000500000000000001525000000000000000009999123100000010000000000000BREQMAACNOR8109
012026012002EQPA3       010EQTL PARA   ON           R$  000000000062000000000006370000000000620000000000062500000000006210000000000615000000000063700012000000000000001800000000000001126300000000000000009999123100000010000000000000BREQPAACNOR1112
012026012002EQPA5       010EQTL PARA   PNA          R$  000000000136000000000013600000000001360000000000136000000000013600000000001200000000000000000001000000000000000100000000000000136000000000000000009999123100000010000000000000BREQPAACNPA4112
012026012002EQPA7       010EQTL PARA   PNC          R$  000000000055900000000005590000000000559000000000055900000000005590000000000559000000000100000004000000000000000700000000000000391300000000000000009999123100000010000000000000BREQPAACNPC0112
012026012002EQTL3       010EQUATORIAL  ON      NM   R$  000000000371300000000037960000000003708000000000376400000000037960000000003795000000000379624117000000000008577800000000032288766600000000000000009999123100000010000000000000BREQTLACNOR0135
012026012002BEEF3       010MINERVA     ON      NM   R$  000000000055300000000005740000000000553000000000056900000000005670000000000567000000000056815685000000000016009700000000009114283400000000000000009999123100000010000000000000BRBEEFACNOR6120
012026012002BRBI11      010BR PARTNERS UNT     N2   R$  000000000181000000000018150000000001766000000000178400000000017660000000001766000000000178602197000000000000379700000000000677563800000000000000009999123100000010000000000000BRBRBICDAM10116
012026012002POSI3       010POSITIVO TECON      NM   R$  000000000039300000000004030000000000388000000000039500000000003960000000000396000000000039801973000000000001573400000000000622383200000000000000009999123100000010000000000000BRPOSIACNOR9118
012026012002PRIO3       010PETRORIO    ON      NM   R$  000000000449300000000045780000000004454000000000452400000000045410000000004541000000000454529465000000000010324400000000046715057600000000000000009999123100000010000000000000BRPRIOACNOR1111
012026012002HYPE3       010HYPERA      ON      NM   R$  000000000231800000000023760000000002295000000000233300000000023730000000002364000000000237407510000000000002287000000000005337309200000000000000009999123100000010000000000000BRHYPEACNOR0149
012026012002BRSR3       010BANRISUL    ON      N1   R$  000000000176000000000018080000000001719000000000177400000000018050000000001764000000000182000037000000000000004000000000000007098500000000000000009999123100000010000000000000BRBRSRACNOR3197
012026012002PATI3       010PANATLANTICAON           R$  000000000304000000000030400000000003040000000000304000000000030400000000002900000000000379200001000000000000000100000000000000304000000000000000009999123100000010000000000000BRPATIACNOR6069
012026012002PCAR3       010P.ACUCAR-CBDON      NM   R$  000000000036400000000003820000000000364000000000037300000000003750000000000374000000000037506973000000000013066000000000004886268700000000000000009999123100000010000000000000BRPCARACNOR3170
012026012002BRSR5       010BANRISUL    PNA     N1   R$  000000000159600000000016760000000001596000000000163600000000016760000000001626000000000184000002000000000000000200000000000000327200000000000000009999123100000010000000000000BRBRSRACNPA6201
012026012002BRSR6       010BANRISUL    PNB     N1   R$  000000000163200000000016510000000001615000000000163300000000016510000000001650000000000165503507000000000000881700000000001439979400000000000000009999123100000010000000000000BRBRSRACNPB4200
012026012002BRST3       010BRISANET    ON      NM   R$  000000000033000000000003380000000000326000000000033400000000003380000000000334000000000033800706000000000000127500000000000042601000000000000000009999123100000010000000000000BRBRSTACNOR9102
012026012002BSLI3       010BRB BANCO   ON           R$  000000000067700000000006870000000000670000000000067400000000006760000000000676000000000068800017000000000000002300000000000001551100000000000000009999123100000010000000000000BRBSLIACNOR5198
012026012002BSLI4       010BRB BANCO   PN           R$  000000000073900000000007400000000000720000000000073400000000007200000000000721000000000073000004000000000000000400000000000000293900000000000000009999123100000010000000000000BRBSLIACNPR2198
012026012002USIM3       010USIMINAS    ON      N1   R$  000000000063600000000006360000000000609000000000061400000000006090000000000609000000000061201577000000000000733500000000000451094000000000000000009999123100000010000000000000BRUSIMACNOR3167
012026012002USIM5       010USIMINAS    PNA     N1   R$  000000000063400000000006340000000000613000000000061900000000006170000000000617000000000061811723000000000016266500000000010074278400000000000000009999123100000010000000000000BRUSIMACNPA6172
012026012002VBBR3       010VIBRA       ON      NM   R$  000000000255300000000025890000000002523000000000257100000000025800000000002570000000000258115920000000000006889400000000017712807400000000000000009999123100000010000000000000BRVBBRACNOR1114
012026012002IRBR3       010IRBBRASIL REON      NM   R$  000000000543000000000054500000000005354000000000540800000000054110000000005400000000000541203483000000000000599400000000003242087000000000000000009999123100000010000000000000BRIRBRACNOR4113
012026012002JSLG3       010JSL         ON      NM   R$  000000000061200000000006170000000000588000000000059700000000005940000000000594000000000059503179000000000002702900000000001614962300000000000000009999123100000010000000000000BRJSLGACNOR2123
012026012002KEPL3       010KEPLER WEBERON      NM   R$  000000000096700000000009790000000000962000000000096900000000009770000000000973000000000097704499000000000002104400000000002041179500000000000000009999123100000010000000000000BRKEPLACNOR1069
012026012002KLBN11      010KLABIN S/A  UNT     N2   R$  000000000186200000000018630000000001838000000000185300000000018500000000001849000000000185307399000000000003012600000000005584063300000000000000009999123100000010000000000000BRKLBNCDAM18151
012026012002KLBN3       010KLABIN S/A  ON      N2   R$  000000000037500000000003760000000000371000000000037300000000003730000000000373000000000037500535000000000000387900000000000144958100000000000000009999123100000010000000000000BRKLBNACNOR2179
012026012002KLBN4       010KLABIN S/A  PN      N2   R$  000000000037100000000003720000000000367000000000037000000000003700000000000370000000000037101931000000000002037600000000000754008200000000000000009999123100000010000000000000BRKLBNACNPR9179
012026012002MILS3       010MILLS       ON      NM   R$  000000000137800000000013860000000001364000000000137700000000013820000000001377000000000138201990000000000000709600000000000977175000000000000000009999123100000010000000000000BRMILSACNOR2132
012026012002MLAS3       010MULTILASER  ON      NM   R$  000000000013200000000001360000000000131000000000013200000000001320000000000132000000000013300662000000000000567100000000000075406000000000000000009999123100000010000000000000BRMLASACNOR9102
012026012002MNDL3       010MUNDIAL     ON           R$  000000000162000000000016200000000001620000000000162000000000016200000000001600000000000163900002000000000000000600000000000000972000000000000000009999123100000010000000000000BRMNDLACNOR4109
012026012002MNPR3       010MINUPAR     ON           R$  000000000041500000000004260000000000407000000000042000000000004240000000000415000000000042400051000000000000021200000000000008922200000000000000009999123100000010000000000000BRMNPRACNOR5123
012026012002MOAR3       010MONT ARANHA ON           R$  000000000581000000000060000000000005810000000000587300000000060000000000005821000000000610000002000000000000000300000000000001762000000000000000009999123100000010000000000000BRMOARACNOR5242
012026012002MOTV3       010MOTIVA SA   ON      NM   R$  000000000151600000000015370000000001509000000000152800000000015320000000001532000000000153310479000000000004355200000000006655073700000000000000009999123100000010000000000000BRMOTVACNOR7102
012026012002MOVI3       010MOVIDA      ON      NM   R$  000000000095500000000009910000000000949000000000096900000000009680000000000967000000000096806221000000000003912400000000003794123600000000000000009999123100000010000000000000BRMOVIACNOR0126
012026012002MRVE3       010MRV         ON      NM   R$  000000000073000000000007490000000000721000000000073900000000007380000000000737000000000073907720000000000005476400000000004048747300000000000000009999123100000010000000000000BRMRVEACNOR2128
012026012002RAIL3       010RUMO S.A.   ON      NM   R$  000000000134200000000013560000000001331000000000134100000000013400000000001339000000000134012130000000000006610600000000008868319300000000000000009999123100000010000000000000BRRAILACNOR9106
012026012002SCAR3       010SAO CARLOS  ON      NM   R$  000000000135200000000013670000000001350000000000135800000000013620000000001362000000000136700097000000000000016800000000000022819100000000000000009999123100000010000000000000BRSCARACNOR7133
012026012002SEER3       010SER EDUCA   ON      NM   R$  000000000100100000000010340000000000985000000000100300000000010140000000001004000000000101409088000000000003244300000000003255271300000000000000009999123100000010000000000000BRSEERACNOR5120
012026012002SEQL3       010SEQUOIA LOG ON      NM   R$  000000000021300000000002140000000000199000000000020500000000001990000000000199000000000020300323000000000000188600000000000038836600000000000000009999123100000010000000000000BRSEQLACNOR2108
012026012002SHOW3       010TIME FOR FUNON      NM   R$  000000000061800000000006700000000000618000000000063700000000006650000000000641000000000066500356000000000000045100000000000028734700000000000000009999123100000010000000000000BRSHOWACNOR7106
012026012002SHUL4       010SCHULZ      PN           R$  000000000050600000000005060000000000493000000000049700000000004950000000000495000000000049700761000000000000473200000000000235217200000000000000009999123100000010000000000000BRSHULACNPR4163
012026012002SIMH3       010SIMPAR      ON      NM   R$  000000000053600000000005480000000000528000000000053500000000005340000000000534000000000053706681000000000005480400000000002933959400000000000000009999123100000010000000000000BRSIMHACNOR0109
012026012002SLCE3       010SLC AGRICOLAON      NM   R$  000000000150100000000015190000000001497000000000151000000000015150000000001510000000000151504386000000000001059300000000001599659900000000000000009999123100000010000000000000BRSLCEACNOR2128
012026012002TPIS3       010TRIUNFO PARTON      NM   R$  000000000050500000000005060000000000502000000000050400000000005030000000000503000000000050500151000000000000036500000000000018414600000000000000009999123100000010000000000000BRTPISACNOR8120
012026012002TRAD3       010TC          ON      NM   R$  000000000037100000000003830000000000364000000000037200000000003650000000000363000000000036500042000000000000007300000000000002721400000000000000009999123100000010000000000000BRTRADACNOR3102
012026012002TRIS3       010TRISUL      ON      NM   R$  000000000061000000000006140000000000594000000000060800000000006120000000000610000000000061200538000000000000274000000000000166752700000000000000009999123100000010000000000000BRTRISACNOR4122
012026012002TTEN3       0103TENTOS     ON      NM   R$  000000000154500000000015760000000001534000000000156500000000015700000000001565000000000157406310000000000001160500000000001816834000000000000000009999123100000010000000000000BRTTENACNOR0105
012026012002TUPY3       010TUPY        ON      NM   R$  000000000113300000000011610000000001123000000000114600000000011550000000001154000000000115504653000000000001542700000000001768585600000000000000009999123100000010000000000000BRTUPYACNOR1185
012026012002MBRF3       010MARFRIG     ON      NM   R$  000000000192400000000019820000000001910000000000194800000000019310000000001931000000000193710088000000000003970000000000007734365000000000000000009999123100000010000000000000BRMBRFACNOR1100
012026012002NGRD3       010NEOGRID     ON      NM   R$  000000000277000000000027860000000002756000000000276900000000027860000000002755000000000278800042000000000000023200000000000064253400000000000000009999123100000010000000000000BRNGRDACNOR3106
012026012002NUTR3       010NUTRIPLANT  ON      MA   R$  000000000027300000000002740000000000266000000000026900000000002700000000000267000000000027000014000000000000001400000000000000376900000000000000009999123100000010000000000000BRNUTRACNOR0104
012026012002RNEW3       010RENOVA      ON      N2   R$  000000000010000000000001020000000000091000000000009600000000000940000000000094000000000009500092000000000000129800000000000012505900000000000000009999123100000010000000000000BRRNEWACNOR8113
012026012002RNEW4       010RENOVA      PN      N2   R$  000000000009000000000000900000000000087000000000008800000000000870000000000087000000000008800038000000000000016900000000000001490500000000000000009999123100000010000000000000BRRNEWACNPR5113
012026012002ROMI3       010ROMI        ON      NM   R$  000000000079100000000007960000000000784000000000079100000000007940000000000793000000000079500708000000000000138500000000000109599900000000000000009999123100000010000000000000BRROMIACNOR8201
012026012002RSUL4       010RIOSULENSE  PN           R$  000000000632100000000063990000000006300000000000632500000000063300000000006300000000000633500013000000000000001300000000000008223500000000000000009999123100000010000000000000BRRSULACNPR3116
012026012002RVEE3       010REVEE       ON      NM   R$  000000000020300000000002030000000000166000000000018900000000001820000000000181000000000020200024000000000000004300000000000000813600000000000000009999123100000010000000000000BRRVEEACNOR9102
012026012002IBOV11      010IBOVESPA    IBO/         R$  000001659550000000165955000000016595500000001659550000000165955000000000000000000000000000000007000000000000000140000000000023233700000000000000009999123100001000000000000000BRIBOVINDM18015
012026012002BBDC3       010BRADESCO    ON      N1   R$  000000000161700000000016500000000001603000000000163900000000016450000000001643000000000164507082000000000004682600000000007676507100000000000000009999123100000010000000000000BRBBDCACNOR1796
012026012002BBDC4       010BRADESCO    PN      N1   R$  000000000187800000000019290000000001868000000000191300000000019170000000001914000000000191728465000000000025010600000000047867570000000000000000009999123100000010000000000000BRBBDCACNPR8796
012026012002BIOM3       010BIOMM       ON      MA   R$  000000000069000000000007040000000000600000000000064800000000006000000000000597000000000060000507000000000000145100000000000094025400000000000000009999123100000010000000000000BRBIOMACNOR2113
012026012002BLAU3       010BLAU        ON      NM   R$  000000000088100000000008950000000000878000000000088300000000008800000000000879000000000088502533000000000000465600000000000411528900000000000000009999123100000010000000000000BRBLAUACNOR8120
012026012002BMEB3       010MERCANTIL   ON      N1   R$  000000000462000000000047500000000004620000000000466600000000047400000000004535000000000468000010000000000000001000000000000004666500000000000000009999123100000010000000000000BRBMEBACNOR8210
012026012002BMEB4       010MERCANTIL   PN      N1   R$  000000000588000000000059570000000005736000000000584300000000057710000000005771000000000582000152000000000000026500000000000154848500000000000000009999123100000010000000000000BRBMEBACNPR5215
012026012002BMGB4       010BANCO BMG   PN      N1   R$  000000000050700000000005090000000000500000000000050400000000005090000000000506000000000050900891000000000000319600000000000161323500000000000000009999123100000010000000000000BRBMGBACNPR0117
012026012002BMIN4       010MERC INVEST PN           R$  000000000190000000000019000000000001900000000000190000000000019000000000001900000000000219800003000000000000000300000000000000570000000000000000009999123100000010000000000000BRBMINACNPR1177
012026012002BMKS3       010BIC MONARK  ON           R$  000000003856300000000385630000000038000000000003822900000000383990000000038100000000003839900022000000000000000105000000000004014139000000000000009999123100000010000000000000BRBMKSACNOR9169
012026012002BMOB3       010BEMOBI TECH ON      NM   R$  000000000231100000000023320000000002280000000000230600000000023060000000002306000000000231802269000000000000344400000000000794518300000000000000009999123100000010000000000000BRBMOBACNOR7107
012026012002BPAC11      010BTGP BANCO  UNT     N2   R$  000000000549700000000055360000000005408000000000550400000000055100000000005510000000000551318293000000000005683800000000031287739000000000000000009999123100000010000000000000BRBPACUNT006128
012026012002BPAC3       010BTGP BANCO  ON      N2   R$  000000000385000000000038500000000003791000000000380900000000038390000000003800000000000384000031000000000000005900000000000022477800000000000000009999123100000010000000000000BRBPACACNOR7139
012026012002BPAC5       010BTGP BANCO  PNA     N2   R$  000000000106700000000010820000000001067000000000107400000000010820000000001070000000000108200017000000000000003100000000000003331300000000000000009999123100000010000000000000BRBPACACNPA0139
012026012002TAEE11      010TAESA       UNT     N2   R$  000000000398100000000040060000000003942000000000397900000000040060000000003994000000000400604388000000000001196100000000004759615600000000000000009999123100000010000000000000BRTAEECDAM10153
012026012002TAEE3       010TAESA       ON      N2   R$  000000000131800000000013250000000001306000000000131700000000013200000000001320000000000132500229000000000000041200000000000054275800000000000000009999123100000010000000000000BRTAEEACNOR9153
012026012002TAEE4       010TAESA       PN      N2   R$  000000000133000000000013430000000001321000000000133200000000013420000000001339000000000134200392000000000000090800000000000120968000000000000000009999123100000010000000000000BRTAEEACNPR6153
012026012002MATD3       010MATER DEI   ON      NM   R$  000000000053400000000005340000000000520000000000052400000000005220000000000522000000000052700298000000000000048500000000000025435800000000000000009999123100000010000000000000BRMATDACNOR4106
012026012002CGAS3       010COMGAS      ON           R$  000000001284900000000128500000000012849000000001284900000000128500000000012849000000001285000003000000000000000300000000000003854800000000000000009999123100000010000000000000BRCGASACNOR0168
012026012002CGAS5       010COMGAS      PNA          R$  000000001339200000000134000000000013211000000001332400000000132240000000013113000000001335000005000000000000000500000000000006662000000000000000009999123100000010000000000000BRCGASACNPA3165
012026012002CGRA3       010GRAZZIOTIN  ON           R$  000000000269000000000026900000000002659000000000268400000000026900000000002660000000000270000007000000000000000700000000000001879400000000000000009999123100000010000000000000BRCGRAACNOR2088
012026012002CGRA4       010GRAZZIOTIN  PN           R$  000000000262500000000026250000000002603000000000260900000000026210000000002615000000000262200046000000000000013100000000000034179200000000000000009999123100000010000000000000BRCGRAACNPR9088
012026012002CLSC4       010CELESC      PN      N2   R$  000000001342500000000134250000000013398000000001340200000000134000000000013330000000001339900004000000000000000600000000000008041700000000000000009999123100000010000000000000BRCLSCACNPR3138
012026012002CMIG3       010CEMIG       ON      N1   R$  000000000141500000000014370000000001412000000000142600000000014370000000001422000000000143700396000000000000096000000000000136943900000000000000009999123100000010000000000000BRCMIGACNOR6251
012026012002SUZB3       010SUZANO S.A. ON      NM   R$  000000000522600000000052260000000005075000000000513400000000051350000000005135000000000513910255000000000002497900000000012825456000000000000000009999123100000010000000000000BRSUZBACNOR0135
012026012002VALE3       010VALE        ON      NM   R$  000000000778300000000080210000000007741000000000792900000000080080000000008000000000000800845413000000000031198500000000247374119200000000000000009999123100000010000000000000BRVALEACNOR0218
012026012002VIVR3       010VIVER       ON      NM   R$  000000000005900000000000610000000000059000000000005900000000000590000000000059000000000006000053000000000000026700000000000001582000000000000000009999123100000010000000000000BRVIVRACNOR4125
012026012002VIVT3       010TELEF BRASILON           R$  000000000327500000000034100000000003248000000000336200000000034050000000003405000000000340615267000000000005511900000000018531290400000000000000009999123100000010000000000000BRVIVTACNOR0199
012026012002VLID3       010VALID       ON      NM   R$  000000000209400000000021120000000002073000000000209100000000020750000000002075000000000208401207000000000000181500000000000379665800000000000000009999123100000010000000000000BRVLIDACNOR5148
012026012002BEES3       010BANESTES    ON           R$  000000000082300000000008230000000000818000000000082100000000008230000000000819000000000082300037000000000000005300000000000004352400000000000000009999123100000010000000000000BRBEESACNOR9414
012026012002BEES4       010BANESTES    PN           R$  000000000081600000000008230000000000805000000000081600000000008140000000000809000000000082500036000000000000009000000000000007347000000000000000009999123100000010000000000000BRBEESACNPR6339
012026012007RIOS3       010RIO ALTO    ON           R$  000000000360000000000036000000000003600000000000360000000000036000000000003000000000000000000001000000000000000100000000000000360000000000000000009999123100000010000000000000BRRIOSACNOR5101
012026012008OIBR3       010OI          ON      N1   R$  000000000001600000000000160000000000016000000000001600000000000160000000000016000000000001700181000000000001222900000000000019566400000000000000009999123100000010000000000000BROIBRACNOR1112
012026012008OIBR4       010OI          PN      N1   R$  000000000012200000000001220000000000122000000000012200000000001220000000000120000000000012200013000000000000003600000000000000439200000000000000009999123100000010000000000000BROIBRACNPR8111
012026012008AGXY3       010AGROGALAXY  ON      NM   R$  000000000040300000000004120000000000397000000000040200000000004040000000000397000000000040300103000000000000015100000000000006083500000000000000009999123100000010000000000000BRAGXYACNOR4104
012026012008PMAM3       010PARANAPANEMAON      NM   R$  000000000008600000000000880000000000076000000000008100000000000850000000000084000000000008501817000000000004346600000000000352825200000000000000009999123100000010000000000000BRPMAMACNOR3045
012026012008LIGT3       010LIGHT S/A   ON      NM   R$  000000000045000000000004570000000000445000000000045100000000004510000000000449000000000045101130000000000000417500000000000188585600000000000000009999123100000010000000000000BRLIGTACNOR2125
012026012008AMER3       010AMERICANAS  ON      NM   R$  000000000047000000000004770000000000464000000000046800000000004650000000000465000000000046902095000000000001991900000000000932459000000000000000009999123100000010000000000000BRAMERACNOR6103
012026012008JFEN3       010JOAO FORTES ON           R$  000000000010200000000001020000000000097000000000009900000000001000000000000097000000000010000003000000000000000300000000000000029900000000000000009999123100000010000000000000BRJFENACNOR0061
012026012008OSXB3       010OSX BRASIL  ON      NM   R$  000000000018000000000001800000000000180000000000018000000000001800000000000179000000000019200002000000000000000200000000000000036000000000000000009999123100000010000000000000BROSXBACNOR8109
012026012008CTAX3       010CONTAX      ON           R$  000000000009100000000000950000000000088000000000009100000000000950000000000091000000000009500009000000000000002200000000000000200900000000000000009999123100000010000000000000BRCTAXACNOR3119
012026012008CTSA3       010SANTANENSE  ON           R$  000000000023600000000002360000000000236000000000023600000000002360000000000235000000000026900001000000000000000100000000000000023600000000000000009999123100000010000000000000BRCTSAACNOR3063
012026012008CTSA4       010SANTANENSE  PN           R$  000000000021100000000002110000000000211000000000021100000000002110000000000202000000000021100003000000000000000400000000000000084400000000000000009999123100000010000000000000BRCTSAACNPR0063
012026012008AMBP3       010AMBIPAR     ON      NM   R$  000000000002800000000000290000000000027000000000002800000000000280000000000028000000000002900949000000000006863700000000000192644500000000000000009999123100000010000000000000BRAMBPACNOR6105
012026012008BDLL3       010BARDELLA    ON           R$  000000000071100000000007110000000000711000000000071100000000007110000000000715000000000080000001000000000000000100000000000000071100000000000000009999123100000010000000000000BRBDLLACNOR1149
012026012008BDLL4       010BARDELLA    PN           R$  000000000061500000000006600000000000615000000000063400000000006600000000000611000000000070000003000000000000000300000000000000190200000000000000009999123100000010000000000000BRBDLLACNPR8151
012026012008HOOT4       010HOTEIS OTHONPN           R$  000000000064700000000006620000000000647000000000065400000000006620000000000651000000000066200004000000000000000500000000000000327000000000000000009999123100000010000000000000BRHOOTACNPR9015
012026012008NEXP3       010NEXPE       ON           R$  000000000027500000000002750000000000275000000000027500000000002750000000000271000000000029900001000000000000000100000000000000027500000000000000009999123100000010000000000000BRNEXPACNOR0101
012026012008RPMG3       010PET MANGUINHON           R$  000000000020900000000002090000000000208000000000020800000000002080000000000209000000000021400002000000000000000200000000000000041700000000000000009999123100000010000000000000BRRPMGACNOR9194
012026012008RSID3       010ROSSI RESID ON      NM   R$  000000000018600000000001860000000000186000000000018600000000001860000000000183000000000018600002000000000000000500000000000000093000000000000000009999123100000010000000000000BRRSIDACNOR8121
012026012008BOBR4       010BOMBRIL     PN           R$  000000000012700000000001270000000000127000000000012700000000001270000000000126000000000012700003000000000000000900000000000000114300000000000000009999123100000010000000000000BRBOBRACNPR3128
012026012010PGMN1       010PAGUE MENOS DIR ORD NM   R$  000000000010700000000001090000000000072000000000008900000000000860000000000082000000000008800182000000000000112000000000000010035500000000000000009999123100000010000000000000BRPGMND05OR4105
012026012010AALR1       010ALLIAR      DIR ORD NM   R$  000000000000100000000000010000000000001000000000000100000000000010000000000000000000000000100051000000000000061500000000000000061500000000000000009999123100000010000000000000BRAALRD02OR9103
012026012010ABCB2       010ABC BRASIL  DIR PRE N2   R$  000000000047800000000004780000000000441000000000046200000000004640000000000464000000000047000037000000000000007200000000000003329600000000000000009999123100000010000000000000BRABCBD19PR1149
012026012010SMFT9       010SMART FIT   ON  REC NM   R$  000000000209000000000022010000000002088000000000216700000000022000000000002100000000000220000017000000000000003900000000000008451800000000000000009999123100000010000000000000BRSMFTR04OR0117
012026012010IFCM1       010INFRACOMM   DIR ORD NM   R$  000000000000800000000000080000000000004000000000000500000000000060000000000004000000000000600420000000000000351000000000000001890600000000000000009999123100000010000000000000BRIFCMD06OR2108
012026012010BMEB1       010MERCANTIL   DIR ORD N1   R$  000000000180000000000018000000000001599000000000165300000000016690000000001668000000000170000158000000000000129800000000000214687900000000000000009999123100000010000000000000BRBMEBD04OR7209
012026012012XPCI11      010FII XP CRED CI           R$  000000000839800000000083980000000008324000000000834600000000083300000000008330000000000834902660000000000000015938000000000133029695000000000000009999123100000010000000000000BRXPCICTF007176
012026012012XPCM11      010FII XP MACAECI           R$  000000000079800000000008200000000000785000000000080300000000008200000000000788000000000081900090000000000000000738000000000000592750000000000000009999123100000010000000000000BRXPCMCTF009230
012026012012XPIN11      010FII XP INDL CI  ER       R$  000000000809500000000080950000000007990000000000801500000000080240000000008009000000000802400841000000000000011029000000000088408091000000000000009999123100000010000000000000BRXPINCTF004193
012026012012XPLG11      010FII XP LOG  CI           R$  000000001032300000000103280000000010275000000001030900000000103170000000010300000000001031704897000000000000038887000000000400912729000000000000009999123100000010000000000000BRXPLGCTF002198
012026012012XPML11      010FII XP MALLSCI  ER       R$  000000001096000000000109700000000010878000000001093000000000109100000000010905000000001091020335000000000000165148000000001805149386000000000000009999123100000010000000000000BRXPMLCTF000206
012026012012XPSF11      010FII XP SELECCI           R$  000000000067100000000006720000000000657000000000066100000000006610000000000659000000000066164999000000000000308215000000000203848366000000000000009999123100000010000000000000BRXPSFCTF009175
012026012012ZAGH11      010FII ZAGH    CI  ER       R$  000000000099700000000009990000000000997000000000099800000000009990000000000980000000000099900004000000000000000035000000000000034933000000000000009999123100000010000000000000BRZAGHCTF007125
012026012012ZAVC11      010FII ZAVIT C CI           R$  000000000089700000000009110000000000897000000000091000000000009110000000000901000000000091100027000000000000000644000000000000586228000000000000009999123100000010000000000000BRZAVCCTF007122
012026012012ZAVI11      010FII ZAVIT R CI           R$  000000000100200000000010020000000000990000000000099200000000009970000000000996000000000099700107000000000000002737000000000002716240000000000000009999123100000010000000000000BRZAVICTF004141
012026012012WHGR11      010FII WHG REALCI           R$  000000000096400000000009650000000000959000000000096100000000009620000000000961000000000096200915000000000000012013000000000011554314000000000000009999123100000010000000000000BRWHGRCTF008145
012026012012WPLZ11      010FII W PLAZA CI           R$  000000000529700000000053000000000004812000000000509900000000048390000000004836000000000530000015000000000000000038000000000000193768000000000000009999123100000010000000000000BRWPLZCTF004286
012026012012WTSP11      010FII WTC SP  CI  ER       R$  000000000605900000000060590000000006059000000000605900000000060590000000005300000000000604000003000000000000000008000000000000048472000000000000009999123100000010000000000000BRWTSPCTF002183
012026012012XLPR11      010FII XLPR RI CI           R$  000000000803600000000081990000000008000000000000812200000000080000000000008000000000000818000006000000000000000018000000000000146205000000000000009999123100000010000000000000BRXLPRCTF009101
012026012012HBCR11      010FII HBC REN CI           R$  000000001379600000000137960000000013796000000001379600000000137960000000013600000000001419900001000000000000028994000000000400001224000000000000009999123100000010000000000000BRHBCRCTF001161
012026012012HCRI11      010FII CRIANCA CI  ER       R$  000000003201700000000320180000000030311000000003105500000000311080000000030311000000003110900040000000000000000089000000000002763961000000000000009999123100000010000000000000BRHCRICTF006348
012026012012HCTR11      010FII HECTARE CI  ER       R$  000000000225300000000022840000000002232000000000224900000000022380000000002236000000000223802050000000000000029226000000000065741896000000000000009999123100000010000000000000BRHCTRCTF003188
012026012012HDEL11      010FII HEDGE DVCI           R$  000000001015100000000101510000000010151000000001015100000000101510000000010150000000001050100001000000000000000050000000000000507550000000000000009999123100000010000000000000BRHDELCTF006107
012026012012HFOF11      010FII HTOPFOF3CI           R$  000000000066000000000006660000000000656000000000066000000000006600000000000660000000000066110375000000000000553114000000000365509325000000000000009999123100000010000000000000BRHFOFCTF002210
012026012012HGBL11      010FII HGBL    CI           R$  000000000092900000000009290000000000910000000000091600000000009200000000000917000000000092000085000000000000007850000000000007193315000000000000009999123100000010000000000000BRHGBLCTF005125
012026012012HGBS11      010FII HEDGEBS CI           R$  000000000201400000000020140000000001988000000000199800000000020040000000001998000000000200408258000000000000402344000000000804071555000000000000009999123100000010000000000000BRHGBSCTF000331
012026012012HGCR11      010FII HGCR PAXCI           R$  000000000991000000000099190000000009853000000000987000000000098550000000009855000000000988303655000000000000020416000000000201506903000000000000009999123100000010000000000000BRHGCRCTF000265
012026012012HGIC11      010FII HGI CRI CI           R$  000000000642300000000066880000000006423000000000656500000000066840000000006583000000000668700025000000000000000142000000000000932358000000000000009999123100000010000000000000BRHGICCTF009159
012026012012HGLG11      010FII HGLG PAXCI           R$  000000001568300000000157150000000015650000000001568100000000157000000000015691000000001570016577000000000000097507000000001529007677000000000000009999123100000010000000000000BRHGLGCTF004291
012026012012HGPO11      010FII HGPO PAXCI           R$  000000001455000000000149480000000014533000000001472600000000146970000000014617000000001469700058000000000000000245000000000003608006000000000000009999123100000010000000000000BRHGPOCTF009166
012026012012VCJR11      010FII VECTIS  CI           R$  000000000797200000000079940000000007918000000000796300000000079750000000007967000000000797504629000000000000029918000000000238240486000000000000009999123100000010000000000000BRVCJRCTF005174
012026012012VCRI11      010FII VINCI CRCI           R$  000000000074200000000007420000000000735000000000073700000000007380000000000737000000000073800263000000000000024406000000000018003934000000000000009999123100000010000000000000BRVCRICTF007145
012026012012VCRR11      010FII VECT RENCI           R$  000000000670000000000067140000000006700000000000670000000000067000000000006700000000000671400293000000000000004308000000000028863978000000000000009999123100000010000000000000BRVCRRCTF008155
012026012012VGHF11      010FII VALOR HECI           R$  000000000072100000000007220000000000716000000000071800000000007200000000000719000000000072010625000000000000441282000000000317139852000000000000009999123100000010000000000000BRVGHFCTF005163
012026012012VGIP11      010FII VALORAIPCI  ER       R$  000000000810000000000081480000000008030000000000808400000000080540000000008053000000000808804221000000000000028135000000000227448368000000000000009999123100000010000000000000BRVGIPCTF002175
012026012012VGIR11      010FII VALREIIICI  ER       R$  000000000097700000000009780000000000975000000000097600000000009780000000000977000000000097810644000000000000455469000000000444594836000000000000009999123100000010000000000000BRVGIRCTF008197
012026012012VGRI11      010FII VGRI    CI           R$  000000000084800000000008600000000000845000000000085400000000008590000000000857000000000085902294000000000000078826000000000067392053000000000000009999123100000010000000000000BRVGRICTF008123
012026012012VILG11      010FII VINCI LGCI           R$  000000001016500000000102020000000010039000000001013700000000102000000000010187000000001020006641000000000000021720000000000220195755000000000000009999123100000010000000000000BRVILGCTF001190
012026012012MFII11      010FII MERITO ICI           R$  000000000768200000000077000000000007580000000000764900000000077000000000007663000000000770001654000000000000020894000000000159837659000000000000009999123100000010000000000000BRMFIICTF008256
012026012012MGHT11      010FII MOGNO HTCI           R$  000000000172300000000017380000000001706000000000171600000000017150000000001715000000000173300031000000000000000549000000000000942616000000000000009999123100000010000000000000BRMGHTCTF005155
012026012012PCIP11      010FII PCIP PAXCI  ER       R$  000000000851500000000085500000000008472000000000851800000000085000000000008500000000000851201511000000000000020429000000000174023664000000000000009999123100000010000000000000BRPCIPCTF003104
012026012012SAPI11      010FII SAPI    CI           R$  000000000090700000000009070000000000898000000000090100000000009070000000000899000000000090800819000000000000022740000000000020492694000000000000009999123100000010000000000000BRSAPICTF001129
012026012012NVHO11      010FII NOVOHORICI           R$  000000000120000000000012000000000001200000000000120000000000012000000000001201000000000127400001000000000000000001000000000000001200000000000000009999123100000010000000000000BRNVHOCTF003249
012026012012OCRE11      010FII OCTO    CI           R$  000000000859900000000089990000000008599000000000872400000000089990000000008737000000000999800007000000000000000016000000000000139593000000000000009999123100000010000000000000BROCRECTF001134
012026012012BGRB11      010FII BGRB    CI           R$  000000001199400000000119940000000011994000000001199400000000119940000000010122000000001199500001000000000000000001000000000000011994000000000000009999123100000010000000000000BRBGRBCTF005114
012026012012VINO11      010FII VINCI OFCI           R$  000000000053200000000005490000000000531000000000054100000000005490000000000545000000000054902494000000000000169789000000000091956168000000000000009999123100000010000000000000BRVINOCTF001176
012026012012VISC11      010FII VINCI SCCI           R$  000000001092600000000110440000000010892000000001095900000000110440000000010980000000001104415623000000000000064397000000000705759836000000000000009999123100000010000000000000BRVISCCTF005205
012026012012VIUR11      010FII VINCI IUCI           R$  000000000059900000000005990000000000591000000000059500000000005950000000000596000000000059700872000000000000086198000000000051331811000000000000009999123100000010000000000000BRVIURCTF009156
012026012012VVCO11      010FII V2EDCORPCI           R$  000000000149900000000014990000000001479000000000148800000000014990000000001482000000000149900021000000000000000421000000000000626619000000000000009999123100000010000000000000BRVVCOCTF007101
